:100000000C9462000C948A000C948A000C948A0070
:100010000C948A000C948A000C948A000C948A0038
:100020000C948A000C948A000C948A000C948A0028
:100030000C948A000C948A000C948A000C948A0018
:100040000C948F030C948A000C948A000C948A0000
:100050000C948A000C948A000C948A000C948A00F8
:100060000C948A000C948A000000000024002700F1
:100070002A0000000000250028002B0000000000DE
:1000800023002600290004040404040404040202DA
:100090000202020203030303030301020408102007
:1000A0004080010204081020010204081020000012
:1000B0000008000201000003040700000000000027
:1000C0000000BE0411241FBECFEFD8E0DEBFCDBFBD
:1000D00011E0A0E0B1E0ECE0FAE002C005900D9282
:1000E000AC34B107D9F721E0ACE4B1E001C01D9216
:1000F000AF36B207E1F710E0C2E6D0E004C02197C6
:10010000FE010E94FE04C136D107C9F70E94D9033F
:100110000C9404050C940000AF92BF92CF92DF9232
:10012000EF92FF920F931F93CF93DF936C017B01AC
:100130008B01040F151FEB015E01AE18BF08C0173D
:10014000D10759F06991D601ED91FC910190F081B0
:10015000E02DC6010995892B79F7C501DF91CF9173
:100160001F910F91FF90EF90DF90CF90BF90AF90D5
:100170000895833081F028F4813099F08230A9F01D
:1001800008958730A9F08830C9F08430B1F48091A7
:1001900080008F7D03C0809180008F7780938000E6
:1001A000089584B58F7784BD089584B58F7DFBCF86
:1001B0008091B0008F778093B00008958091B00057
:1001C0008F7DF9CFCF93DF93282F30E0F901E255EF
:1001D000FF4F8491F901E656FF4FD491F901EA5798
:1001E000FF4FC491CC23A1F081110E94B900EC2FE4
:1001F000F0E0EE0FFF1FE458FF4FA591B491EC9192
:10020000ED2381E090E009F480E0DF91CF91089543
:1002100080E090E0FACF1F93CF93DF93282F30E058
:10022000F901E255FF4F8491F901E656FF4FD49151
:10023000F901EA57FF4FC491CC23A9F0162F811181
:100240000E94B900EC2FF0E0EE0FFF1FEE58FF4FB9
:10025000A591B4918FB7F894EC91111108C0D09585
:10026000DE23DC938FBFDF91CF911F910895DE2BAA
:10027000F8CFCF93DF9390E0FC01E656FF4F249137
:100280008A579F4FFC0184918823D1F090E0880F1A
:10029000991FFC01E859FF4FA591B491FC01EE585C
:1002A000FF4FC591D49161110EC09FB7F8948C9106
:1002B000E22FE0958E238C932881E223E8839FBF71
:1002C000DF91CF9108958FB7F894EC91E22BEC93E6
:1002D0008FBFF6CF3FB7F8948091510190915201B2
:1002E000A0915301B091540126B5A89B05C02F3FA2
:1002F00019F00196A11DB11D3FBFBA2FA92F982F4C
:100300008827BC01CD01620F711D811D911D42E046
:10031000660F771F881F991F4A95D1F708958F920E
:100320009F92AF92BF92CF92DF92EF92FF920E9484
:100330006A014B015C0188EEC82E83E0D82EE12CC7
:10034000F12C0E946A01681979098A099B09683EA3
:10035000734081059105A8F321E0C21AD108E10894
:10036000F10888EE880E83E0981EA11CB11CC11410
:10037000D104E104F10429F7FF90EF90DF90CF90D2
:10038000BF90AF909F908F900895089590E080E087
:100390000895FC0101900020E9F73197AF01481B57
:1003A000590BBC0187E591E00C948C008F929F92D1
:1003B000AF92BF920F931F93CF93DF93CDB7DEB76A
:1003C000A1970FB6F894DEBF0FBECDBF19A2423081
:1003D00008F44AE08E010F5D1F4F842E912CB12C42
:1003E000A12CA50194010E94DC04E62FB901CA01E9
:1003F000EA30F4F4E05DD801EE938D01232B242B39
:10040000252B79F790E080E0109719F0CD010E943C
:10041000C901A1960FB6F894DEBF0FBECDBFDF9124
:10042000CF911F910F91BF90AF909F908F900895A3
:10043000E95CE1CFCF93DF93EC0160E08E810E9415
:100440000B0161E08E810E940B0160E08E810E94B1
:100450000B018BE891E00197F1F7DF91CF910895BF
:10046000CF92DF92EF92FF920F931F93CF93DF9380
:100470006C017C0187E0E80EF11CD0E0C0E0062FA3
:1004800010E0B8010C2E02C0759567950A94E2F74A
:100490006170F70181917F010E940B012196C430A8
:1004A000D10579F7C601DF91CF911F910F91FF9090
:1004B000EF90DF90CF900C941A02CF92DF92EF92E0
:1004C000FF920F931F93CF93DF93EC01F62E642FCF
:1004D0008C810E940B018D818F3F19F060E00E949A
:1004E0000B010F2D10E08F8584FF25C06E0187E082
:1004F000C80ED11CF12CE12CB8010E2C02C0759550
:1005000067950A94E2F76170F60181916F010E948C
:100510000B01FFEFEF1AFF0A88E0E816F10461F71C
:10052000CE01DF91CF911F910F91FF90EF90DF905F
:10053000CF900C941A02B80184E0759567958A955E
:10054000E1F7CE010E9430026F2DCE01DF91CF91F5
:100550001F910F91FF90EF90DF90CF900C9430029D
:1005600040E0682F87E591E00C945D0281E00E94F5
:10057000B0028BE39FE10197F1F70895CF93DF93EA
:10058000823029F49091660198609093660180937F
:100590006A0110926B0180E480936C0180E180938A
:1005A0006D0180E580936E0161E080915B010E94A6
:1005B000390180915C018F3F19F061E00E9439019F
:1005C00061E080915D010E943901C7E5D1E09E01A3
:1005D000275531408091660184FD0BC084E090E096
:1005E00021962817390744F461E08E810E94390171
:1005F000EECF88E090E0F4CF8BE39DE00197F1F738
:1006000060E080915B010E940B0160E080915D01E0
:100610000E940B0180915C018F3F19F060E00E9405
:100620000B018091660184FD34C063E087E591E0B1
:100630000E943002CBE4D6E4CE010197F1F763E0EB
:1006400087E591E00E9430022197F1F763E087E5AA
:1006500091E00E94300283E592E00197F1F762E0B9
:1006600087E591E00E9430028091660180620E94DD
:10067000B00284E0809367018CE00E94B0020E9487
:10068000B60282E08093680186E0DF91CF910C94FE
:10069000B00280620E94B0028BE496E40197F1F709
:1006A0008091660180620E94B00283E592E001972A
:1006B000F1F78091660180620E94B002D5CFE0918F
:1006C0006A01E23040F4E150F0E0E95AFE4F8489DB
:1006D00080680C94B002E1E0F7CF41E00E945D0237
:1006E00081E090E00895CF92DF92EF92FF926B014C
:1006F0007C0141E06DE287E591E00E945D026627A2
:100700007727CB016C197D098E099F094AE00E9469
:10071000D6010196FF90EF90DF90CF9008951F9241
:100720000F920FB60F9211242F933F938F939F93A5
:10073000AF93BF9380914D0190914E01A0914F01D5
:10074000B091500130914C0123E0230F2D3758F523
:100750000196A11DB11D20934C0180934D019093F2
:100760004E01A0934F01B09350018091510190919F
:100770005201A0915301B09154010196A11DB11DE8
:100780008093510190935201A0935301B09354016F
:10079000BF91AF919F918F913F912F910F900FBE7D
:1007A0000F901F90189526E8230F0296A11DB11DEA
:1007B000D2CF789484B5826084BD84B5816084BDD5
:1007C00085B5826085BD85B5816085BD80916E00EF
:1007D000816080936E001092810080918100826020
:1007E000809381008091810081608093810080915D
:1007F00080008160809380008091B100846080934C
:10080000B1008091B00081608093B00080917A0047
:10081000846080937A0080917A00826080937A006D
:1008200080917A00816080937A0080917A0080685C
:1008300080937A001092C10082E00E94BE028CE098
:1008400091E00E94C90160E08EE00E94390160E001
:1008500083E10E94390161E082E00E9439010E9437
:100860008F010E94B6028CE191E00E94C9010E94B2
:100870005F036091550170915601072E000C880BA3
:10088000990B97FF6AC00E9473030E948F01C0E01A
:10089000D0E08EE00E94E2000197F9F480915501CA
:1008A00090915601019690935601809355010E94B4
:1008B000B6028DE291E00E94C9010E945F0360913F
:1008C000550170915601072E000C880B990B97FF6C
:1008D00048C00E9473030E948F0183E10E94E200DE
:1008E000019711F58091550190915601181619063E
:1008F0002CF4019790935601809355010E94B60203
:100900008DE291E00E94C9010E945F036091550150
:1009100070915601072E000C880B990B97FF25C08C
:100920000E9473030E948F0180915501909156019E
:1009300018161906F4F00E94B6028DE391E00E94A9
:10094000C90160E082E00E940B010E948F012097A4
:1009500009F49FCF0E9400009CCF4AE00E94D6017C
:1009600094CF4AE00E94D601B6CF4AE00E94D60159
:10097000D9CF61E082E00E940B01E9CFE7E5F1E029
:100980001382128284E091E0918380838DE08483DE
:100990008FEF85838CE086838BE087838AE0808776
:1009A00089E0818788E082871386148615861686FB
:1009B000178681E00C94BE02A1E21A2EAA1BBB1B73
:1009C000FD010DC0AA1FBB1FEE1FFF1FA217B3071B
:1009D000E407F50720F0A21BB30BE40BF50B661F31
:1009E000771F881F991F1A9469F7609570958095F5
:1009F00090959B01AC01BD01CF010895EE0FFF1F43
:0C0A00000590F491E02D0994F894FFCFCC
:100A0C00000000006D038C00C601C50156697369B6
:100A1C00746F7220436F756E7465720050657273DB
:100A2C006F6E20496E20526F6F6D3A2000506572C8
:100A3C00736F6E20496E20526F6F6D3A004E6F626D
:0C0A4C006F647920496E20526F6F6D00BE
:00000001FF
